{
  "_format": "hh-sol-artifact-1",
  "contractName": "NFT",
  "sourceName": "contracts/NFT.sol",
  "abi": [
    {
      "inputs": [],
      "stateMutability": "nonpayable",
      "type": "constructor"
    },
    {
      "anonymous": false,
      "inputs": [
        {
          "indexed": true,
          "internalType": "address",
          "name": "owner",
          "type": "address"
        },
        {
          "indexed": true,
          "internalType": "address",
          "name": "approved",
          "type": "address"
        },
        {
          "indexed": true,
          "internalType": "uint256",
          "name": "tokenId",
          "type": "uint256"
        }
      ],
      "name": "Approval",
      "type": "event"
    },
    {
      "anonymous": false,
      "inputs": [
        {
          "indexed": true,
          "internalType": "address",
          "name": "owner",
          "type": "address"
        },
        {
          "indexed": true,
          "internalType": "address",
          "name": "operator",
          "type": "address"
        },
        {
          "indexed": false,
          "internalType": "bool",
          "name": "approved",
          "type": "bool"
        }
      ],
      "name": "ApprovalForAll",
      "type": "event"
    },
    {
      "anonymous": false,
      "inputs": [
        {
          "indexed": true,
          "internalType": "address",
          "name": "from",
          "type": "address"
        },
        {
          "indexed": true,
          "internalType": "address",
          "name": "to",
          "type": "address"
        },
        {
          "indexed": true,
          "internalType": "uint256",
          "name": "tokenId",
          "type": "uint256"
        }
      ],
      "name": "Transfer",
      "type": "event"
    },
    {
      "inputs": [
        {
          "internalType": "address",
          "name": "to",
          "type": "address"
        },
        {
          "internalType": "uint256",
          "name": "tokenId",
          "type": "uint256"
        }
      ],
      "name": "approve",
      "outputs": [],
      "stateMutability": "nonpayable",
      "type": "function"
    },
    {
      "inputs": [
        {
          "internalType": "address",
          "name": "owner",
          "type": "address"
        }
      ],
      "name": "balanceOf",
      "outputs": [
        {
          "internalType": "uint256",
          "name": "",
          "type": "uint256"
        }
      ],
      "stateMutability": "view",
      "type": "function"
    },
    {
      "inputs": [
        {
          "internalType": "uint256",
          "name": "tokenId",
          "type": "uint256"
        }
      ],
      "name": "getApproved",
      "outputs": [
        {
          "internalType": "address",
          "name": "",
          "type": "address"
        }
      ],
      "stateMutability": "view",
      "type": "function"
    },
    {
      "inputs": [
        {
          "internalType": "address",
          "name": "owner",
          "type": "address"
        },
        {
          "internalType": "address",
          "name": "operator",
          "type": "address"
        }
      ],
      "name": "isApprovedForAll",
      "outputs": [
        {
          "internalType": "bool",
          "name": "",
          "type": "bool"
        }
      ],
      "stateMutability": "view",
      "type": "function"
    },
    {
      "inputs": [
        {
          "internalType": "address",
          "name": "recipient",
          "type": "address"
        }
      ],
      "name": "mintTo",
      "outputs": [
        {
          "internalType": "uint256",
          "name": "",
          "type": "uint256"
        }
      ],
      "stateMutability": "nonpayable",
      "type": "function"
    },
    {
      "inputs": [],
      "name": "name",
      "outputs": [
        {
          "internalType": "string",
          "name": "",
          "type": "string"
        }
      ],
      "stateMutability": "view",
      "type": "function"
    },
    {
      "inputs": [
        {
          "internalType": "uint256",
          "name": "tokenId",
          "type": "uint256"
        }
      ],
      "name": "ownerOf",
      "outputs": [
        {
          "internalType": "address",
          "name": "",
          "type": "address"
        }
      ],
      "stateMutability": "view",
      "type": "function"
    },
    {
      "inputs": [
        {
          "internalType": "address",
          "name": "from",
          "type": "address"
        },
        {
          "internalType": "address",
          "name": "to",
          "type": "address"
        },
        {
          "internalType": "uint256",
          "name": "tokenId",
          "type": "uint256"
        }
      ],
      "name": "safeTransferFrom",
      "outputs": [],
      "stateMutability": "nonpayable",
      "type": "function"
    },
    {
      "inputs": [
        {
          "internalType": "address",
          "name": "from",
          "type": "address"
        },
        {
          "internalType": "address",
          "name": "to",
          "type": "address"
        },
        {
          "internalType": "uint256",
          "name": "tokenId",
          "type": "uint256"
        },
        {
          "internalType": "bytes",
          "name": "_data",
          "type": "bytes"
        }
      ],
      "name": "safeTransferFrom",
      "outputs": [],
      "stateMutability": "nonpayable",
      "type": "function"
    },
    {
      "inputs": [
        {
          "internalType": "address",
          "name": "operator",
          "type": "address"
        },
        {
          "internalType": "bool",
          "name": "approved",
          "type": "bool"
        }
      ],
      "name": "setApprovalForAll",
      "outputs": [],
      "stateMutability": "nonpayable",
      "type": "function"
    },
    {
      "inputs": [
        {
          "internalType": "bytes4",
          "name": "interfaceId",
          "type": "bytes4"
        }
      ],
      "name": "supportsInterface",
      "outputs": [
        {
          "internalType": "bool",
          "name": "",
          "type": "bool"
        }
      ],
      "stateMutability": "view",
      "type": "function"
    },
    {
      "inputs": [],
      "name": "symbol",
      "outputs": [
        {
          "internalType": "string",
          "name": "",
          "type": "string"
        }
      ],
      "stateMutability": "view",
      "type": "function"
    },
    {
      "inputs": [
        {
          "internalType": "uint256",
          "name": "tokenId",
          "type": "uint256"
        }
      ],
      "name": "tokenURI",
      "outputs": [
        {
          "internalType": "string",
          "name": "",
          "type": "string"
        }
      ],
      "stateMutability": "view",
      "type": "function"
    },
    {
      "inputs": [
        {
          "internalType": "address",
          "name": "from",
          "type": "address"
        },
        {
          "internalType": "address",
          "name": "to",
          "type": "address"
        },
        {
          "internalType": "uint256",
          "name": "tokenId",
          "type": "uint256"
        }
      ],
      "name": "transferFrom",
      "outputs": [],
      "stateMutability": "nonpayable",
      "type": "function"
    }
  ],
  "bytecode": "0x60806040523480156200001157600080fd5b506040518060400160405280600b81526020017f4e46545475746f7269616c0000000000000000000000000000000000000000008152506040518060400160405280600381526020017f4e46540000000000000000000000000000000000000000000000000000000000815250816000908051906020019062000096929190620000b8565b508060019080519060200190620000af929190620000b8565b505050620001cd565b828054620000c69062000168565b90600052602060002090601f016020900481019282620000ea576000855562000136565b82601f106200010557805160ff191683800117855562000136565b8280016001018555821562000136579182015b828111156200013557825182559160200191906001019062000118565b5b50905062000145919062000149565b5090565b5b80821115620001645760008160009055506001016200014a565b5090565b600060028204905060018216806200018157607f821691505b602082108114156200019857620001976200019e565b5b50919050565b7f4e487b7100000000000000000000000000000000000000000000000000000000600052602260045260246000fd5b61269480620001dd6000396000f3fe608060405234801561001057600080fd5b50600436106100ea5760003560e01c806370a082311161008c578063a22cb46511610066578063a22cb4651461026f578063b88d4fde1461028b578063c87b56dd146102a7578063e985e9c5146102d7576100ea565b806370a08231146101f1578063755edd171461022157806395d89b4114610251576100ea565b8063095ea7b3116100c8578063095ea7b31461016d57806323b872dd1461018957806342842e0e146101a55780636352211e146101c1576100ea565b806301ffc9a7146100ef57806306fdde031461011f578063081812fc1461013d575b600080fd5b61010960048036038101906101049190611964565b610307565b604051610116919061205c565b60405180910390f35b6101276103e9565b6040516101349190612077565b60405180910390f35b610157600480360381019061015291906119b6565b61047b565b6040516101649190611ff5565b60405180910390f35b61018760048036038101906101829190611928565b610500565b005b6101a3600480360381019061019e9190611822565b610618565b005b6101bf60048036038101906101ba9190611822565b610678565b005b6101db60048036038101906101d691906119b6565b610698565b6040516101e89190611ff5565b60405180910390f35b61020b600480360381019061020691906117bd565b61074a565b6040516102189190612259565b60405180910390f35b61023b600480360381019061023691906117bd565b610802565b6040516102489190612259565b60405180910390f35b61025961082f565b6040516102669190612077565b60405180910390f35b610289600480360381019061028491906118ec565b6108c1565b005b6102a560048036038101906102a09190611871565b6108d7565b005b6102c160048036038101906102bc91906119b6565b610939565b6040516102ce9190612077565b60405180910390f35b6102f160048036038101906102ec91906117e6565b6109e0565b6040516102fe919061205c565b60405180910390f35b60007f80ac58cd000000000000000000000000000000000000000000000000000000007bffffffffffffffffffffffffffffffffffffffffffffffffffffffff1916827bffffffffffffffffffffffffffffffffffffffffffffffffffffffff191614806103d257507f5b5e139f000000000000000000000000000000000000000000000000000000007bffffffffffffffffffffffffffffffffffffffffffffffffffffffff1916827bffffffffffffffffffffffffffffffffffffffffffffffffffffffff1916145b806103e257506103e182610a74565b5b9050919050565b6060600080546103f890612489565b80601f016020809104026020016040519081016040528092919081815260200182805461042490612489565b80156104715780601f1061044657610100808354040283529160200191610471565b820191906000526020600020905b81548152906001019060200180831161045457829003601f168201915b5050505050905090565b600061048682610ade565b6104c5576040517f08c379a00000000000000000000000000000000000000000000000000000000081526004016104bc906121b9565b60405180910390fd5b6004600083815260200190815260200160002060009054906101000a900473ffffffffffffffffffffffffffffffffffffffff169050919050565b600061050b82610698565b90508073ffffffffffffffffffffffffffffffffffffffff168373ffffffffffffffffffffffffffffffffffffffff16141561057c576040517f08c379a000000000000000000000000000000000000000000000000000000000815260040161057390612219565b60405180910390fd5b8073ffffffffffffffffffffffffffffffffffffffff1661059b610b4a565b73ffffffffffffffffffffffffffffffffffffffff1614806105ca57506105c9816105c4610b4a565b6109e0565b5b610609576040517f08c379a000000000000000000000000000000000000000000000000000000000815260040161060090612139565b60405180910390fd5b6106138383610b52565b505050565b610629610623610b4a565b82610c0b565b610668576040517f08c379a000000000000000000000000000000000000000000000000000000000815260040161065f90612239565b60405180910390fd5b610673838383610ce9565b505050565b610693838383604051806020016040528060008152506108d7565b505050565b6000806002600084815260200190815260200160002060009054906101000a900473ffffffffffffffffffffffffffffffffffffffff169050600073ffffffffffffffffffffffffffffffffffffffff168173ffffffffffffffffffffffffffffffffffffffff161415610741576040517f08c379a000000000000000000000000000000000000000000000000000000000815260040161073890612179565b60405180910390fd5b80915050919050565b60008073ffffffffffffffffffffffffffffffffffffffff168273ffffffffffffffffffffffffffffffffffffffff1614156107bb576040517f08c379a00000000000000000000000000000000000000000000000000000000081526004016107b290612159565b60405180910390fd5b600360008373ffffffffffffffffffffffffffffffffffffffff1673ffffffffffffffffffffffffffffffffffffffff168152602001908152602001600020549050919050565b600061080e6006610f45565b600061081a6006610f5b565b90506108268382610f69565b80915050919050565b60606001805461083e90612489565b80601f016020809104026020016040519081016040528092919081815260200182805461086a90612489565b80156108b75780601f1061088c576101008083540402835291602001916108b7565b820191906000526020600020905b81548152906001019060200180831161089a57829003601f168201915b5050505050905090565b6108d36108cc610b4a565b8383610f87565b5050565b6108e86108e2610b4a565b83610c0b565b610927576040517f08c379a000000000000000000000000000000000000000000000000000000000815260040161091e90612239565b60405180910390fd5b610933848484846110f4565b50505050565b606061094482610ade565b610983576040517f08c379a000000000000000000000000000000000000000000000000000000000815260040161097a906121f9565b60405180910390fd5b600061098d611150565b905060008151116109ad57604051806020016040528060008152506109d8565b806109b784611167565b6040516020016109c8929190611fd1565b6040516020818303038152906040525b915050919050565b6000600560008473ffffffffffffffffffffffffffffffffffffffff1673ffffffffffffffffffffffffffffffffffffffff16815260200190815260200160002060008373ffffffffffffffffffffffffffffffffffffffff1673ffffffffffffffffffffffffffffffffffffffff16815260200190815260200160002060009054906101000a900460ff16905092915050565b60007f01ffc9a7000000000000000000000000000000000000000000000000000000007bffffffffffffffffffffffffffffffffffffffffffffffffffffffff1916827bffffffffffffffffffffffffffffffffffffffffffffffffffffffff1916149050919050565b60008073ffffffffffffffffffffffffffffffffffffffff166002600084815260200190815260200160002060009054906101000a900473ffffffffffffffffffffffffffffffffffffffff1673ffffffffffffffffffffffffffffffffffffffff1614159050919050565b600033905090565b816004600083815260200190815260200160002060006101000a81548173ffffffffffffffffffffffffffffffffffffffff021916908373ffffffffffffffffffffffffffffffffffffffff160217905550808273ffffffffffffffffffffffffffffffffffffffff16610bc583610698565b73ffffffffffffffffffffffffffffffffffffffff167f8c5be1e5ebec7d5bd14f71427d1e84f3dd0314c0f7b2291e5b200ac8c7c3b92560405160405180910390a45050565b6000610c1682610ade565b610c55576040517f08c379a0000000000000000000000000000000000000000000000000000000008152600401610c4c90612119565b60405180910390fd5b6000610c6083610698565b90508073ffffffffffffffffffffffffffffffffffffffff168473ffffffffffffffffffffffffffffffffffffffff161480610ccf57508373ffffffffffffffffffffffffffffffffffffffff16610cb78461047b565b73ffffffffffffffffffffffffffffffffffffffff16145b80610ce05750610cdf81856109e0565b5b91505092915050565b8273ffffffffffffffffffffffffffffffffffffffff16610d0982610698565b73ffffffffffffffffffffffffffffffffffffffff1614610d5f576040517f08c379a0000000000000000000000000000000000000000000000000000000008152600401610d56906121d9565b60405180910390fd5b600073ffffffffffffffffffffffffffffffffffffffff168273ffffffffffffffffffffffffffffffffffffffff161415610dcf576040517f08c379a0000000000000000000000000000000000000000000000000000000008152600401610dc6906120d9565b60405180910390fd5b610dda838383611314565b610de5600082610b52565b6001600360008573ffffffffffffffffffffffffffffffffffffffff1673ffffffffffffffffffffffffffffffffffffffff1681526020019081526020016000206000828254610e35919061239f565b925050819055506001600360008473ffffffffffffffffffffffffffffffffffffffff1673ffffffffffffffffffffffffffffffffffffffff1681526020019081526020016000206000828254610e8c9190612318565b92505081905550816002600083815260200190815260200160002060006101000a81548173ffffffffffffffffffffffffffffffffffffffff021916908373ffffffffffffffffffffffffffffffffffffffff160217905550808273ffffffffffffffffffffffffffffffffffffffff168473ffffffffffffffffffffffffffffffffffffffff167fddf252ad1be2c89b69c2b068fc378daa952ba7f163c4a11628f55a4df523b3ef60405160405180910390a4505050565b6001816000016000828254019250508190555050565b600081600001549050919050565b610f83828260405180602001604052806000815250611319565b5050565b8173ffffffffffffffffffffffffffffffffffffffff168373ffffffffffffffffffffffffffffffffffffffff161415610ff6576040517f08c379a0000000000000000000000000000000000000000000000000000000008152600401610fed906120f9565b60405180910390fd5b80600560008573ffffffffffffffffffffffffffffffffffffffff1673ffffffffffffffffffffffffffffffffffffffff16815260200190815260200160002060008473ffffffffffffffffffffffffffffffffffffffff1673ffffffffffffffffffffffffffffffffffffffff16815260200190815260200160002060006101000a81548160ff0219169083151502179055508173ffffffffffffffffffffffffffffffffffffffff168373ffffffffffffffffffffffffffffffffffffffff167f17307eab39ab6107e8899845ad3d59bd9653f200f220920489ca2b5937696c31836040516110e7919061205c565b60405180910390a3505050565b6110ff848484610ce9565b61110b84848484611374565b61114a576040517f08c379a000000000000000000000000000000000000000000000000000000000815260040161114190612099565b60405180910390fd5b50505050565b606060405180602001604052806000815250905090565b606060008214156111af576040518060400160405280600181526020017f3000000000000000000000000000000000000000000000000000000000000000815250905061130f565b600082905060005b600082146111e15780806111ca906124bb565b915050600a826111da919061236e565b91506111b7565b60008167ffffffffffffffff811115611223577f4e487b7100000000000000000000000000000000000000000000000000000000600052604160045260246000fd5b6040519080825280601f01601f1916602001820160405280156112555781602001600182028036833780820191505090505b5090505b600085146113085760018261126e919061239f565b9150600a8561127d9190612504565b60306112899190612318565b60f81b8183815181106112c5577f4e487b7100000000000000000000000000000000000000000000000000000000600052603260045260246000fd5b60200101907effffffffffffffffffffffffffffffffffffffffffffffffffffffffffffff1916908160001a905350600a85611301919061236e565b9450611259565b8093505050505b919050565b505050565b611323838361150b565b6113306000848484611374565b61136f576040517f08c379a000000000000000000000000000000000000000000000000000000000815260040161136690612099565b60405180910390fd5b505050565b60006113958473ffffffffffffffffffffffffffffffffffffffff166116d9565b156114fe578373ffffffffffffffffffffffffffffffffffffffff1663150b7a026113be610b4a565b8786866040518563ffffffff1660e01b81526004016113e09493929190612010565b602060405180830381600087803b1580156113fa57600080fd5b505af192505050801561142b57506040513d601f19601f82011682018060405250810190611428919061198d565b60015b6114ae573d806000811461145b576040519150601f19603f3d011682016040523d82523d6000602084013e611460565b606091505b506000815114156114a6576040517f08c379a000000000000000000000000000000000000000000000000000000000815260040161149d90612099565b60405180910390fd5b805181602001fd5b63150b7a0260e01b7bffffffffffffffffffffffffffffffffffffffffffffffffffffffff1916817bffffffffffffffffffffffffffffffffffffffffffffffffffffffff191614915050611503565b600190505b949350505050565b600073ffffffffffffffffffffffffffffffffffffffff168273ffffffffffffffffffffffffffffffffffffffff16141561157b576040517f08c379a000000000000000000000000000000000000000000000000000000000815260040161157290612199565b60405180910390fd5b61158481610ade565b156115c4576040517f08c379a00000000000000000000000000000000000000000000000000000000081526004016115bb906120b9565b60405180910390fd5b6115d060008383611314565b6001600360008473ffffffffffffffffffffffffffffffffffffffff1673ffffffffffffffffffffffffffffffffffffffff16815260200190815260200160002060008282546116209190612318565b92505081905550816002600083815260200190815260200160002060006101000a81548173ffffffffffffffffffffffffffffffffffffffff021916908373ffffffffffffffffffffffffffffffffffffffff160217905550808273ffffffffffffffffffffffffffffffffffffffff16600073ffffffffffffffffffffffffffffffffffffffff167fddf252ad1be2c89b69c2b068fc378daa952ba7f163c4a11628f55a4df523b3ef60405160405180910390a45050565b600080823b905060008111915050919050565b60006116ff6116fa846122a5565b612274565b90508281526020810184848401111561171757600080fd5b611722848285612447565b509392505050565b60008135905061173981612602565b92915050565b60008135905061174e81612619565b92915050565b60008135905061176381612630565b92915050565b60008151905061177881612630565b92915050565b600082601f83011261178f57600080fd5b813561179f8482602086016116ec565b91505092915050565b6000813590506117b781612647565b92915050565b6000602082840312156117cf57600080fd5b60006117dd8482850161172a565b91505092915050565b600080604083850312156117f957600080fd5b60006118078582860161172a565b92505060206118188582860161172a565b9150509250929050565b60008060006060848603121561183757600080fd5b60006118458682870161172a565b93505060206118568682870161172a565b9250506040611867868287016117a8565b9150509250925092565b6000806000806080858703121561188757600080fd5b60006118958782880161172a565b94505060206118a68782880161172a565b93505060406118b7878288016117a8565b925050606085013567ffffffffffffffff8111156118d457600080fd5b6118e08782880161177e565b91505092959194509250565b600080604083850312156118ff57600080fd5b600061190d8582860161172a565b925050602061191e8582860161173f565b9150509250929050565b6000806040838503121561193b57600080fd5b60006119498582860161172a565b925050602061195a858286016117a8565b9150509250929050565b60006020828403121561197657600080fd5b600061198484828501611754565b91505092915050565b60006020828403121561199f57600080fd5b60006119ad84828501611769565b91505092915050565b6000602082840312156119c857600080fd5b60006119d6848285016117a8565b91505092915050565b6119e8816123d3565b82525050565b6119f7816123e5565b82525050565b6000611a08826122d5565b611a1281856122eb565b9350611a22818560208601612456565b611a2b816125f1565b840191505092915050565b6000611a41826122e0565b611a4b81856122fc565b9350611a5b818560208601612456565b611a64816125f1565b840191505092915050565b6000611a7a826122e0565b611a84818561230d565b9350611a94818560208601612456565b80840191505092915050565b6000611aad6032836122fc565b91507f4552433732313a207472616e7366657220746f206e6f6e20455243373231526560008301527f63656976657220696d706c656d656e74657200000000000000000000000000006020830152604082019050919050565b6000611b13601c836122fc565b91507f4552433732313a20746f6b656e20616c7265616479206d696e746564000000006000830152602082019050919050565b6000611b536024836122fc565b91507f4552433732313a207472616e7366657220746f20746865207a65726f2061646460008301527f72657373000000000000000000000000000000000000000000000000000000006020830152604082019050919050565b6000611bb96019836122fc565b91507f4552433732313a20617070726f766520746f2063616c6c6572000000000000006000830152602082019050919050565b6000611bf9602c836122fc565b91507f4552433732313a206f70657261746f7220717565727920666f72206e6f6e657860008301527f697374656e7420746f6b656e00000000000000000000000000000000000000006020830152604082019050919050565b6000611c5f6038836122fc565b91507f4552433732313a20617070726f76652063616c6c6572206973206e6f74206f7760008301527f6e6572206e6f7220617070726f76656420666f7220616c6c00000000000000006020830152604082019050919050565b6000611cc5602a836122fc565b91507f4552433732313a2062616c616e636520717565727920666f7220746865207a6560008301527f726f2061646472657373000000000000000000000000000000000000000000006020830152604082019050919050565b6000611d2b6029836122fc565b91507f4552433732313a206f776e657220717565727920666f72206e6f6e657869737460008301527f656e7420746f6b656e00000000000000000000000000000000000000000000006020830152604082019050919050565b6000611d916020836122fc565b91507f4552433732313a206d696e7420746f20746865207a65726f20616464726573736000830152602082019050919050565b6000611dd1602c836122fc565b91507f4552433732313a20617070726f76656420717565727920666f72206e6f6e657860008301527f697374656e7420746f6b656e00000000000000000000000000000000000000006020830152604082019050919050565b6000611e376029836122fc565b91507f4552433732313a207472616e73666572206f6620746f6b656e2074686174206960008301527f73206e6f74206f776e00000000000000000000000000000000000000000000006020830152604082019050919050565b6000611e9d602f836122fc565b91507f4552433732314d657461646174613a2055524920717565727920666f72206e6f60008301527f6e6578697374656e7420746f6b656e00000000000000000000000000000000006020830152604082019050919050565b6000611f036021836122fc565b91507f4552433732313a20617070726f76616c20746f2063757272656e74206f776e6560008301527f72000000000000000000000000000000000000000000000000000000000000006020830152604082019050919050565b6000611f696031836122fc565b91507f4552433732313a207472616e736665722063616c6c6572206973206e6f74206f60008301527f776e6572206e6f7220617070726f7665640000000000000000000000000000006020830152604082019050919050565b611fcb8161243d565b82525050565b6000611fdd8285611a6f565b9150611fe98284611a6f565b91508190509392505050565b600060208201905061200a60008301846119df565b92915050565b600060808201905061202560008301876119df565b61203260208301866119df565b61203f6040830185611fc2565b818103606083015261205181846119fd565b905095945050505050565b600060208201905061207160008301846119ee565b92915050565b600060208201905081810360008301526120918184611a36565b905092915050565b600060208201905081810360008301526120b281611aa0565b9050919050565b600060208201905081810360008301526120d281611b06565b9050919050565b600060208201905081810360008301526120f281611b46565b9050919050565b6000602082019050818103600083015261211281611bac565b9050919050565b6000602082019050818103600083015261213281611bec565b9050919050565b6000602082019050818103600083015261215281611c52565b9050919050565b6000602082019050818103600083015261217281611cb8565b9050919050565b6000602082019050818103600083015261219281611d1e565b9050919050565b600060208201905081810360008301526121b281611d84565b9050919050565b600060208201905081810360008301526121d281611dc4565b9050919050565b600060208201905081810360008301526121f281611e2a565b9050919050565b6000602082019050818103600083015261221281611e90565b9050919050565b6000602082019050818103600083015261223281611ef6565b9050919050565b6000602082019050818103600083015261225281611f5c565b9050919050565b600060208201905061226e6000830184611fc2565b92915050565b6000604051905081810181811067ffffffffffffffff8211171561229b5761229a6125c2565b5b8060405250919050565b600067ffffffffffffffff8211156122c0576122bf6125c2565b5b601f19601f8301169050602081019050919050565b600081519050919050565b600081519050919050565b600082825260208201905092915050565b600082825260208201905092915050565b600081905092915050565b60006123238261243d565b915061232e8361243d565b9250827fffffffffffffffffffffffffffffffffffffffffffffffffffffffffffffffff0382111561236357612362612535565b5b828201905092915050565b60006123798261243d565b91506123848361243d565b92508261239457612393612564565b5b828204905092915050565b60006123aa8261243d565b91506123b58361243d565b9250828210156123c8576123c7612535565b5b828203905092915050565b60006123de8261241d565b9050919050565b60008115159050919050565b60007fffffffff0000000000000000000000000000000000000000000000000000000082169050919050565b600073ffffffffffffffffffffffffffffffffffffffff82169050919050565b6000819050919050565b82818337600083830152505050565b60005b83811015612474578082015181840152602081019050612459565b83811115612483576000848401525b50505050565b600060028204905060018216806124a157607f821691505b602082108114156124b5576124b4612593565b5b50919050565b60006124c68261243d565b91507fffffffffffffffffffffffffffffffffffffffffffffffffffffffffffffffff8214156124f9576124f8612535565b5b600182019050919050565b600061250f8261243d565b915061251a8361243d565b92508261252a57612529612564565b5b828206905092915050565b7f4e487b7100000000000000000000000000000000000000000000000000000000600052601160045260246000fd5b7f4e487b7100000000000000000000000000000000000000000000000000000000600052601260045260246000fd5b7f4e487b7100000000000000000000000000000000000000000000000000000000600052602260045260246000fd5b7f4e487b7100000000000000000000000000000000000000000000000000000000600052604160045260246000fd5b6000601f19601f8301169050919050565b61260b816123d3565b811461261657600080fd5b50565b612622816123e5565b811461262d57600080fd5b50565b612639816123f1565b811461264457600080fd5b50565b6126508161243d565b811461265b57600080fd5b5056fea2646970667358221220dafa85aa4aa775cb1d32b10ae63bd76e3af44f96e7c3a0100c9ff34082dce2b064736f6c63430008000033",
  "linkReferences": {},
  "deployedLinkReferences": {}
}